{
  "contractName": "YouWalletToken",
  "abi": [
    {
      "constant": false,
      "inputs": [
        {
          "name": "who",
          "type": "address"
        }
      ],
      "name": "openForceAutoFree",
      "outputs": [],
      "payable": false,
      "stateMutability": "nonpayable",
      "type": "function"
    },
    {
      "constant": true,
      "inputs": [],
      "name": "name",
      "outputs": [
        {
          "name": "",
          "type": "string"
        }
      ],
      "payable": false,
      "stateMutability": "view",
      "type": "function"
    },
    {
      "constant": false,
      "inputs": [
        {
          "name": "who",
          "type": "address"
        }
      ],
      "name": "delAdministrator",
      "outputs": [],
      "payable": false,
      "stateMutability": "nonpayable",
      "type": "function"
    },
    {
      "constant": true,
      "inputs": [],
      "name": "totalSupply",
      "outputs": [
        {
          "name": "",
          "type": "uint256"
        }
      ],
      "payable": false,
      "stateMutability": "view",
      "type": "function"
    },
    {
      "constant": true,
      "inputs": [
        {
          "name": "",
          "type": "address"
        }
      ],
      "name": "adminList",
      "outputs": [
        {
          "name": "",
          "type": "bool"
        }
      ],
      "payable": false,
      "stateMutability": "view",
      "type": "function"
    },
    {
      "constant": true,
      "inputs": [],
      "name": "INITIAL_SUPPLY",
      "outputs": [
        {
          "name": "",
          "type": "uint256"
        }
      ],
      "payable": false,
      "stateMutability": "view",
      "type": "function"
    },
    {
      "constant": true,
      "inputs": [],
      "name": "decimals",
      "outputs": [
        {
          "name": "",
          "type": "uint8"
        }
      ],
      "payable": false,
      "stateMutability": "view",
      "type": "function"
    },
    {
      "constant": false,
      "inputs": [],
      "name": "unpause",
      "outputs": [],
      "payable": false,
      "stateMutability": "nonpayable",
      "type": "function"
    },
    {
      "constant": true,
      "inputs": [],
      "name": "paused",
      "outputs": [
        {
          "name": "",
          "type": "bool"
        }
      ],
      "payable": false,
      "stateMutability": "view",
      "type": "function"
    },
    {
      "constant": true,
      "inputs": [
        {
          "name": "",
          "type": "address"
        }
      ],
      "name": "accounts",
      "outputs": [
        {
          "name": "lockedBalances",
          "type": "uint256"
        },
        {
          "name": "start_date",
          "type": "uint256"
        },
        {
          "name": "end_date",
          "type": "uint256"
        }
      ],
      "payable": false,
      "stateMutability": "view",
      "type": "function"
    },
    {
      "constant": false,
      "inputs": [],
      "name": "renounceOwnership",
      "outputs": [],
      "payable": false,
      "stateMutability": "nonpayable",
      "type": "function"
    },
    {
      "constant": false,
      "inputs": [],
      "name": "pause",
      "outputs": [],
      "payable": false,
      "stateMutability": "nonpayable",
      "type": "function"
    },
    {
      "constant": true,
      "inputs": [],
      "name": "owner",
      "outputs": [
        {
          "name": "",
          "type": "address"
        }
      ],
      "payable": false,
      "stateMutability": "view",
      "type": "function"
    },
    {
      "constant": true,
      "inputs": [],
      "name": "symbol",
      "outputs": [
        {
          "name": "",
          "type": "string"
        }
      ],
      "payable": false,
      "stateMutability": "view",
      "type": "function"
    },
    {
      "constant": false,
      "inputs": [
        {
          "name": "who",
          "type": "address"
        }
      ],
      "name": "closeAutoFree",
      "outputs": [],
      "payable": false,
      "stateMutability": "nonpayable",
      "type": "function"
    },
    {
      "constant": true,
      "inputs": [
        {
          "name": "",
          "type": "address"
        }
      ],
      "name": "autoFreeLockBalance",
      "outputs": [
        {
          "name": "",
          "type": "bool"
        }
      ],
      "payable": false,
      "stateMutability": "view",
      "type": "function"
    },
    {
      "constant": false,
      "inputs": [
        {
          "name": "who",
          "type": "address"
        }
      ],
      "name": "openAutoFree",
      "outputs": [],
      "payable": false,
      "stateMutability": "nonpayable",
      "type": "function"
    },
    {
      "constant": false,
      "inputs": [
        {
          "name": "who",
          "type": "address"
        }
      ],
      "name": "addAdministrator",
      "outputs": [],
      "payable": false,
      "stateMutability": "nonpayable",
      "type": "function"
    },
    {
      "constant": true,
      "inputs": [
        {
          "name": "_owner",
          "type": "address"
        },
        {
          "name": "_spender",
          "type": "address"
        }
      ],
      "name": "allowance",
      "outputs": [
        {
          "name": "",
          "type": "uint256"
        }
      ],
      "payable": false,
      "stateMutability": "view",
      "type": "function"
    },
    {
      "constant": true,
      "inputs": [],
      "name": "curYear",
      "outputs": [
        {
          "name": "",
          "type": "uint256"
        }
      ],
      "payable": false,
      "stateMutability": "view",
      "type": "function"
    },
    {
      "constant": true,
      "inputs": [
        {
          "name": "",
          "type": "address"
        }
      ],
      "name": "forceAutoFreeLockBalance",
      "outputs": [
        {
          "name": "",
          "type": "bool"
        }
      ],
      "payable": false,
      "stateMutability": "view",
      "type": "function"
    },
    {
      "constant": false,
      "inputs": [
        {
          "name": "newOwner",
          "type": "address"
        }
      ],
      "name": "transferOwnership",
      "outputs": [],
      "payable": false,
      "stateMutability": "nonpayable",
      "type": "function"
    },
    {
      "constant": true,
      "inputs": [],
      "name": "vault",
      "outputs": [
        {
          "name": "",
          "type": "uint256"
        }
      ],
      "payable": false,
      "stateMutability": "view",
      "type": "function"
    },
    {
      "inputs": [
        {
          "name": "_owner",
          "type": "address"
        }
      ],
      "payable": false,
      "stateMutability": "nonpayable",
      "type": "constructor"
    },
    {
      "payable": true,
      "stateMutability": "payable",
      "type": "fallback"
    },
    {
      "anonymous": false,
      "inputs": [
        {
          "indexed": true,
          "name": "from",
          "type": "address"
        },
        {
          "indexed": true,
          "name": "to",
          "type": "address"
        },
        {
          "indexed": false,
          "name": "values",
          "type": "uint256[]"
        },
        {
          "indexed": false,
          "name": "dates",
          "type": "uint256[]"
        }
      ],
      "name": "TransferByDate",
      "type": "event"
    },
    {
      "anonymous": false,
      "inputs": [
        {
          "indexed": true,
          "name": "spender",
          "type": "address"
        },
        {
          "indexed": true,
          "name": "from",
          "type": "address"
        },
        {
          "indexed": true,
          "name": "to",
          "type": "address"
        },
        {
          "indexed": false,
          "name": "values",
          "type": "uint256[]"
        },
        {
          "indexed": false,
          "name": "dates",
          "type": "uint256[]"
        }
      ],
      "name": "TransferFromByDate",
      "type": "event"
    },
    {
      "anonymous": false,
      "inputs": [
        {
          "indexed": true,
          "name": "from",
          "type": "address"
        },
        {
          "indexed": true,
          "name": "who",
          "type": "address"
        }
      ],
      "name": "Refresh",
      "type": "event"
    },
    {
      "anonymous": false,
      "inputs": [],
      "name": "Pause",
      "type": "event"
    },
    {
      "anonymous": false,
      "inputs": [],
      "name": "Unpause",
      "type": "event"
    },
    {
      "anonymous": false,
      "inputs": [
        {
          "indexed": true,
          "name": "admin",
          "type": "address"
        },
        {
          "indexed": true,
          "name": "who",
          "type": "address"
        }
      ],
      "name": "OpenAutoFree",
      "type": "event"
    },
    {
      "anonymous": false,
      "inputs": [
        {
          "indexed": true,
          "name": "admin",
          "type": "address"
        },
        {
          "indexed": true,
          "name": "who",
          "type": "address"
        }
      ],
      "name": "CloseAutoFree",
      "type": "event"
    },
    {
      "anonymous": false,
      "inputs": [
        {
          "indexed": true,
          "name": "admin",
          "type": "address"
        },
        {
          "indexed": true,
          "name": "who",
          "type": "address"
        }
      ],
      "name": "OpenForceAutoFree",
      "type": "event"
    },
    {
      "anonymous": false,
      "inputs": [
        {
          "indexed": true,
          "name": "admin",
          "type": "address"
        }
      ],
      "name": "AddAdministrator",
      "type": "event"
    },
    {
      "anonymous": false,
      "inputs": [
        {
          "indexed": true,
          "name": "admin",
          "type": "address"
        }
      ],
      "name": "DelAdministrator",
      "type": "event"
    },
    {
      "anonymous": false,
      "inputs": [
        {
          "indexed": true,
          "name": "previousOwner",
          "type": "address"
        }
      ],
      "name": "OwnershipRenounced",
      "type": "event"
    },
    {
      "anonymous": false,
      "inputs": [
        {
          "indexed": true,
          "name": "previousOwner",
          "type": "address"
        },
        {
          "indexed": true,
          "name": "newOwner",
          "type": "address"
        }
      ],
      "name": "OwnershipTransferred",
      "type": "event"
    },
    {
      "anonymous": false,
      "inputs": [
        {
          "indexed": true,
          "name": "spender",
          "type": "address"
        },
        {
          "indexed": true,
          "name": "from",
          "type": "address"
        },
        {
          "indexed": true,
          "name": "to",
          "type": "address"
        },
        {
          "indexed": false,
          "name": "value",
          "type": "uint256"
        }
      ],
      "name": "TransferFrom",
      "type": "event"
    },
    {
      "anonymous": false,
      "inputs": [
        {
          "indexed": true,
          "name": "owner",
          "type": "address"
        },
        {
          "indexed": true,
          "name": "spender",
          "type": "address"
        },
        {
          "indexed": false,
          "name": "value",
          "type": "uint256"
        }
      ],
      "name": "Approval",
      "type": "event"
    },
    {
      "anonymous": false,
      "inputs": [
        {
          "indexed": true,
          "name": "from",
          "type": "address"
        },
        {
          "indexed": true,
          "name": "to",
          "type": "address"
        },
        {
          "indexed": false,
          "name": "value",
          "type": "uint256"
        }
      ],
      "name": "Transfer",
      "type": "event"
    },
    {
      "constant": false,
      "inputs": [
        {
          "name": "_to",
          "type": "address"
        },
        {
          "name": "_value",
          "type": "uint256"
        }
      ],
      "name": "transfer",
      "outputs": [
        {
          "name": "",
          "type": "bool"
        }
      ],
      "payable": false,
      "stateMutability": "nonpayable",
      "type": "function"
    },
    {
      "constant": false,
      "inputs": [
        {
          "name": "_from",
          "type": "address"
        },
        {
          "name": "_to",
          "type": "address"
        },
        {
          "name": "_value",
          "type": "uint256"
        }
      ],
      "name": "transferFrom",
      "outputs": [
        {
          "name": "",
          "type": "bool"
        }
      ],
      "payable": false,
      "stateMutability": "nonpayable",
      "type": "function"
    },
    {
      "constant": false,
      "inputs": [
        {
          "name": "_spender",
          "type": "address"
        },
        {
          "name": "_value",
          "type": "uint256"
        }
      ],
      "name": "approve",
      "outputs": [
        {
          "name": "",
          "type": "bool"
        }
      ],
      "payable": false,
      "stateMutability": "nonpayable",
      "type": "function"
    },
    {
      "constant": false,
      "inputs": [
        {
          "name": "_spender",
          "type": "address"
        },
        {
          "name": "_addedValue",
          "type": "uint256"
        }
      ],
      "name": "increaseApproval",
      "outputs": [
        {
          "name": "success",
          "type": "bool"
        }
      ],
      "payable": false,
      "stateMutability": "nonpayable",
      "type": "function"
    },
    {
      "constant": false,
      "inputs": [
        {
          "name": "_spender",
          "type": "address"
        },
        {
          "name": "_subtractedValue",
          "type": "uint256"
        }
      ],
      "name": "decreaseApproval",
      "outputs": [
        {
          "name": "success",
          "type": "bool"
        }
      ],
      "payable": false,
      "stateMutability": "nonpayable",
      "type": "function"
    },
    {
      "constant": false,
      "inputs": [
        {
          "name": "_receivers",
          "type": "address[]"
        },
        {
          "name": "_values",
          "type": "uint256[]"
        }
      ],
      "name": "batchTransfer",
      "outputs": [],
      "payable": false,
      "stateMutability": "nonpayable",
      "type": "function"
    },
    {
      "constant": false,
      "inputs": [
        {
          "name": "_from",
          "type": "address"
        },
        {
          "name": "_receivers",
          "type": "address[]"
        },
        {
          "name": "_values",
          "type": "uint256[]"
        }
      ],
      "name": "batchTransferFrom",
      "outputs": [],
      "payable": false,
      "stateMutability": "nonpayable",
      "type": "function"
    },
    {
      "constant": false,
      "inputs": [
        {
          "name": "_receiver",
          "type": "address"
        },
        {
          "name": "_values",
          "type": "uint256[]"
        },
        {
          "name": "_dates",
          "type": "uint256[]"
        }
      ],
      "name": "transferByDate",
      "outputs": [],
      "payable": false,
      "stateMutability": "nonpayable",
      "type": "function"
    },
    {
      "constant": false,
      "inputs": [
        {
          "name": "_from",
          "type": "address"
        },
        {
          "name": "_receiver",
          "type": "address"
        },
        {
          "name": "_values",
          "type": "uint256[]"
        },
        {
          "name": "_dates",
          "type": "uint256[]"
        }
      ],
      "name": "transferFromByDate",
      "outputs": [],
      "payable": false,
      "stateMutability": "nonpayable",
      "type": "function"
    },
    {
      "constant": false,
      "inputs": [
        {
          "name": "_who",
          "type": "address"
        }
      ],
      "name": "refresh",
      "outputs": [],
      "payable": false,
      "stateMutability": "nonpayable",
      "type": "function"
    },
    {
      "constant": true,
      "inputs": [
        {
          "name": "_owner",
          "type": "address"
        }
      ],
      "name": "availableBalanceOf",
      "outputs": [
        {
          "name": "",
          "type": "uint256"
        }
      ],
      "payable": false,
      "stateMutability": "view",
      "type": "function"
    },
    {
      "constant": true,
      "inputs": [
        {
          "name": "_owner",
          "type": "address"
        }
      ],
      "name": "balanceOf",
      "outputs": [
        {
          "name": "",
          "type": "uint256"
        }
      ],
      "payable": false,
      "stateMutability": "view",
      "type": "function"
    },
    {
      "constant": true,
      "inputs": [
        {
          "name": "_who",
          "type": "address"
        }
      ],
      "name": "lockedBalanceOf",
      "outputs": [
        {
          "name": "",
          "type": "uint256"
        }
      ],
      "payable": false,
      "stateMutability": "view",
      "type": "function"
    },
    {
      "constant": true,
      "inputs": [
        {
          "name": "_who",
          "type": "address"
        },
        {
          "name": "date",
          "type": "uint256"
        }
      ],
      "name": "lockedBalanceOfByDate",
      "outputs": [
        {
          "name": "",
          "type": "uint256"
        },
        {
          "name": "",
          "type": "uint256"
        }
      ],
      "payable": false,
      "stateMutability": "view",
      "type": "function"
    }
  ],
  "bytecode": "0x60806040526000600360146101000a81548160ff0219169083151502179055503480156200002c57600080fd5b5060405160208062004b5d833981018060405260208110156200004e57600080fd5b810190808051906020019092919050505033600360006101000a81548173ffffffffffffffffffffffffffffffffffffffff021916908373ffffffffffffffffffffffffffffffffffffffff160217905550600073ffffffffffffffffffffffffffffffffffffffff168173ffffffffffffffffffffffffffffffffffffffff161415620000db57600080fd5b80600360006101000a81548173ffffffffffffffffffffffffffffffffffffffff021916908373ffffffffffffffffffffffffffffffffffffffff160217905550600160066000600360009054906101000a900473ffffffffffffffffffffffffffffffffffffffff1673ffffffffffffffffffffffffffffffffffffffff1673ffffffffffffffffffffffffffffffffffffffff16815260200190815260200160002060006101000a81548160ff021916908315150217905550601260ff16600a0a633b9aca0002600181905550601260ff16600a0a633b9aca0002600080600360009054906101000a900473ffffffffffffffffffffffffffffffffffffffff1673ffffffffffffffffffffffffffffffffffffffff1673ffffffffffffffffffffffffffffffffffffffff16815260200190815260200160002081905550600360009054906101000a900473ffffffffffffffffffffffffffffffffffffffff1673ffffffffffffffffffffffffffffffffffffffff16600073ffffffffffffffffffffffffffffffffffffffff167fddf252ad1be2c89b69c2b068fc378daa952ba7f163c4a11628f55a4df523b3ef601260ff16600a0a633b9aca00026040518082815260200191505060405180910390a3620002e86064620002d4600a6001546200030060201b6200460e1790919060201c565b6200033860201b620046421790919060201c565b600981905550635a490980600881905550506200034d565b60008083141562000315576000905062000332565b8183029050818382816200032557fe5b04146200032e57fe5b8090505b92915050565b60008183816200034457fe5b04905092915050565b614800806200035d6000396000f3fe60806040526004361061021a5760003560e01c806370a0823111610123578063c0b762fa116100ab578063e199d53f1161006f578063e199d53f146111b0578063e1fac58d146111db578063e471cac714611251578063f2fde38b146112ba578063fbfa77cf1461130b5761021a565b8063c0b762fa14610fad578063c42b372d14611016578063c999117614611067578063d73dd623146110b8578063dd62ed3e1461112b5761021a565b80638da5cb5b116100f25780638da5cb5b14610c895780639226237514610ce057806395d89b4114610e59578063a3a4c74d14610ee9578063a9059cbb14610f3a5761021a565b806370a0823114610a9d578063715018a614610b025780638456cb5914610b1957806388d695b214610b305761021a565b806327304dfd116101a65780634885b254116101755780634885b254146107aa57806359355736146109235780635c975abb146109885780635e5c06e2146109b75780636618846314610a2a5761021a565b806327304dfd146106ce5780632ff2e9dc14610737578063313ce567146107625780633f4ba83a146107935761021a565b8063113ee964116101ed578063113ee964146103c157806315dfaccd1461055a57806318160ddd146105ab57806323b872dd146105d657806325d998bb146106695761021a565b806305cc1d8e1461021c57806306fdde031461026d578063095ea7b3146102fd5780630afb040914610370575b005b34801561022857600080fd5b5061026b6004803603602081101561023f57600080fd5b81019080803573ffffffffffffffffffffffffffffffffffffffff169060200190929190505050611336565b005b34801561027957600080fd5b50610282611445565b6040518080602001828103825283818151815260200191508051906020019080838360005b838110156102c25780820151818401526020810190506102a7565b50505050905090810190601f1680156102ef5780820380516001836020036101000a031916815260200191505b509250505060405180910390f35b34801561030957600080fd5b506103566004803603604081101561032057600080fd5b81019080803573ffffffffffffffffffffffffffffffffffffffff1690602001909291908035906020019092919050505061147e565b604051808215151515815260200191505060405180910390f35b34801561037c57600080fd5b506103bf6004803603602081101561039357600080fd5b81019080803573ffffffffffffffffffffffffffffffffffffffff1690602001909291905050506114ac565b005b3480156103cd57600080fd5b50610558600480360360808110156103e457600080fd5b81019080803573ffffffffffffffffffffffffffffffffffffffff169060200190929190803573ffffffffffffffffffffffffffffffffffffffff1690602001909291908035906020019064010000000081111561044157600080fd5b82018360208201111561045357600080fd5b8035906020019184602083028401116401000000008311171561047557600080fd5b919080806020026020016040519081016040528093929190818152602001838360200280828437600081840152601f19601f820116905080830192505050505050509192919290803590602001906401000000008111156104d557600080fd5b8201836020820111156104e757600080fd5b8035906020019184602083028401116401000000008311171561050957600080fd5b919080806020026020016040519081016040528093929190818152602001838360200280828437600081840152601f19601f82011690508083019250505050505050919291929050505061152d565b005b34801561056657600080fd5b506105a96004803603602081101561057d57600080fd5b81019080803573ffffffffffffffffffffffffffffffffffffffff169060200190929190505050611963565b005b3480156105b757600080fd5b506105c0611a52565b6040518082815260200191505060405180910390f35b3480156105e257600080fd5b5061064f600480360360608110156105f957600080fd5b81019080803573ffffffffffffffffffffffffffffffffffffffff169060200190929190803573ffffffffffffffffffffffffffffffffffffffff16906020019092919080359060200190929190505050611a5c565b604051808215151515815260200191505060405180910390f35b34801561067557600080fd5b506106b86004803603602081101561068c57600080fd5b81019080803573ffffffffffffffffffffffffffffffffffffffff169060200190929190505050611c7e565b6040518082815260200191505060405180910390f35b3480156106da57600080fd5b5061071d600480360360208110156106f157600080fd5b81019080803573ffffffffffffffffffffffffffffffffffffffff169060200190929190505050611cd0565b604051808215151515815260200191505060405180910390f35b34801561074357600080fd5b5061074c611cf0565b6040518082815260200191505060405180910390f35b34801561076e57600080fd5b50610777611d01565b604051808260ff1660ff16815260200191505060405180910390f35b34801561079f57600080fd5b506107a8611d06565b005b3480156107b657600080fd5b50610921600480360360608110156107cd57600080fd5b81019080803573ffffffffffffffffffffffffffffffffffffffff1690602001909291908035906020019064010000000081111561080a57600080fd5b82018360208201111561081c57600080fd5b8035906020019184602083028401116401000000008311171561083e57600080fd5b919080806020026020016040519081016040528093929190818152602001838360200280828437600081840152601f19601f8201169050808301925050505050505091929192908035906020019064010000000081111561089e57600080fd5b8201836020820111156108b057600080fd5b803590602001918460208302840111640100000000831117156108d257600080fd5b919080806020026020016040519081016040528093929190818152602001838360200280828437600081840152601f19601f820116905080830192505050505050509192919290505050611dc2565b005b34801561092f57600080fd5b506109726004803603602081101561094657600080fd5b81019080803573ffffffffffffffffffffffffffffffffffffffff169060200190929190505050612122565b6040518082815260200191505060405180910390f35b34801561099457600080fd5b5061099d612178565b604051808215151515815260200191505060405180910390f35b3480156109c357600080fd5b50610a06600480360360208110156109da57600080fd5b81019080803573ffffffffffffffffffffffffffffffffffffffff16906020019092919050505061218b565b60405180848152602001838152602001828152602001935050505060405180910390f35b348015610a3657600080fd5b50610a8360048036036040811015610a4d57600080fd5b81019080803573ffffffffffffffffffffffffffffffffffffffff169060200190929190803590602001909291905050506121b5565b604051808215151515815260200191505060405180910390f35b348015610aa957600080fd5b50610aec60048036036020811015610ac057600080fd5b81019080803573ffffffffffffffffffffffffffffffffffffffff1690602001909291905050506121e3565b6040518082815260200191505060405180910390f35b348015610b0e57600080fd5b50610b1761226f565b005b348015610b2557600080fd5b50610b2e612372565b005b348015610b3c57600080fd5b50610c8760048036036040811015610b5357600080fd5b8101908080359060200190640100000000811115610b7057600080fd5b820183602082011115610b8257600080fd5b80359060200191846020830284011164010000000083111715610ba457600080fd5b919080806020026020016040519081016040528093929190818152602001838360200280828437600081840152601f19601f82011690508083019250505050505050919291929080359060200190640100000000811115610c0457600080fd5b820183602082011115610c1657600080fd5b80359060200191846020830284011164010000000083111715610c3857600080fd5b919080806020026020016040519081016040528093929190818152602001838360200280828437600081840152601f19601f82011690508083019250505050505050919291929050505061242f565b005b348015610c9557600080fd5b50610c9e6125f6565b604051808273ffffffffffffffffffffffffffffffffffffffff1673ffffffffffffffffffffffffffffffffffffffff16815260200191505060405180910390f35b348015610cec57600080fd5b50610e5760048036036060811015610d0357600080fd5b81019080803573ffffffffffffffffffffffffffffffffffffffff16906020019092919080359060200190640100000000811115610d4057600080fd5b820183602082011115610d5257600080fd5b80359060200191846020830284011164010000000083111715610d7457600080fd5b919080806020026020016040519081016040528093929190818152602001838360200280828437600081840152601f19601f82011690508083019250505050505050919291929080359060200190640100000000811115610dd457600080fd5b820183602082011115610de657600080fd5b80359060200191846020830284011164010000000083111715610e0857600080fd5b919080806020026020016040519081016040528093929190818152602001838360200280828437600081840152601f19601f82011690508083019250505050505050919291929050505061261c565b005b348015610e6557600080fd5b50610e6e6128a2565b6040518080602001828103825283818151815260200191508051906020019080838360005b83811015610eae578082015181840152602081019050610e93565b50505050905090810190601f168015610edb5780820380516001836020036101000a031916815260200191505b509250505060405180910390f35b348015610ef557600080fd5b50610f3860048036036020811015610f0c57600080fd5b81019080803573ffffffffffffffffffffffffffffffffffffffff1690602001909291905050506128db565b005b348015610f4657600080fd5b50610f9360048036036040811015610f5d57600080fd5b81019080803573ffffffffffffffffffffffffffffffffffffffff169060200190929190803590602001909291905050506129e8565b604051808215151515815260200191505060405180910390f35b348015610fb957600080fd5b50610ffc60048036036020811015610fd057600080fd5b81019080803573ffffffffffffffffffffffffffffffffffffffff169060200190929190505050612a71565b604051808215151515815260200191505060405180910390f35b34801561102257600080fd5b506110656004803603602081101561103957600080fd5b81019080803573ffffffffffffffffffffffffffffffffffffffff169060200190929190505050612a91565b005b34801561107357600080fd5b506110b66004803603602081101561108a57600080fd5b81019080803573ffffffffffffffffffffffffffffffffffffffff169060200190929190505050612b95565b005b3480156110c457600080fd5b50611111600480360360408110156110db57600080fd5b81019080803573ffffffffffffffffffffffffffffffffffffffff16906020019092919080359060200190929190505050612c8d565b604051808215151515815260200191505060405180910390f35b34801561113757600080fd5b5061119a6004803603604081101561114e57600080fd5b81019080803573ffffffffffffffffffffffffffffffffffffffff169060200190929190803573ffffffffffffffffffffffffffffffffffffffff169060200190929190505050612cbb565b6040518082815260200191505060405180910390f35b3480156111bc57600080fd5b506111c5612d42565b6040518082815260200191505060405180910390f35b3480156111e757600080fd5b50611234600480360360408110156111fe57600080fd5b81019080803573ffffffffffffffffffffffffffffffffffffffff16906020019092919080359060200190929190505050612d48565b604051808381526020018281526020019250505060405180910390f35b34801561125d57600080fd5b506112a06004803603602081101561127457600080fd5b81019080803573ffffffffffffffffffffffffffffffffffffffff169060200190929190505050612e04565b604051808215151515815260200191505060405180910390f35b3480156112c657600080fd5b50611309600480360360208110156112dd57600080fd5b81019080803573ffffffffffffffffffffffffffffffffffffffff169060200190929190505050612e24565b005b34801561131757600080fd5b50611320612f78565b6040518082815260200191505060405180910390f35b600360009054906101000a900473ffffffffffffffffffffffffffffffffffffffff1673ffffffffffffffffffffffffffffffffffffffff163373ffffffffffffffffffffffffffffffffffffffff161461139057600080fd5b6001600560008373ffffffffffffffffffffffffffffffffffffffff1673ffffffffffffffffffffffffffffffffffffffff16815260200190815260200160002060006101000a81548160ff0219169083151502179055508073ffffffffffffffffffffffffffffffffffffffff163373ffffffffffffffffffffffffffffffffffffffff167f90593001022d7fe2a99a613290208e561a1c602f5e527d017b535fa9cf39ba8c60405160405180910390a350565b6040518060400160405280600a81526020017f596f752057616c6c65740000000000000000000000000000000000000000000081525081565b6000600360149054906101000a900460ff161561149a57600080fd5b6114a48383612f7e565b905092915050565b600360149054906101000a900460ff16156114c657600080fd5b6114cf81613070565b508073ffffffffffffffffffffffffffffffffffffffff163373ffffffffffffffffffffffffffffffffffffffff167fd21cda94a0d735b647fa6af31afd3b7832897724d53ca7164bff77f248c9b95760405160405180910390a350565b600360149054906101000a900460ff161561154757600080fd5b60008251118015611559575080518251145b61156257600080fd5b600073ffffffffffffffffffffffffffffffffffffffff168373ffffffffffffffffffffffffffffffffffffffff16141561159c57600080fd5b6115a584613070565b506115af83613070565b5060008090506000809050600091505b83518263ffffffff161015611609576115fa848363ffffffff16815181106115e357fe5b60200260200101518261352d90919063ffffffff16565b905081806001019250506115bf565b6000808773ffffffffffffffffffffffffffffffffffffffff1673ffffffffffffffffffffffffffffffffffffffff1681526020019081526020016000205481111561165457600080fd5b600260008773ffffffffffffffffffffffffffffffffffffffff1673ffffffffffffffffffffffffffffffffffffffff16815260200190815260200160002060003373ffffffffffffffffffffffffffffffffffffffff1673ffffffffffffffffffffffffffffffffffffffff168152602001908152602001600020548111156116dd57600080fd5b61176c81600260008973ffffffffffffffffffffffffffffffffffffffff1673ffffffffffffffffffffffffffffffffffffffff16815260200190815260200160002060003373ffffffffffffffffffffffffffffffffffffffff1673ffffffffffffffffffffffffffffffffffffffff1681526020019081526020016000205461354790919063ffffffff16565b600260008873ffffffffffffffffffffffffffffffffffffffff1673ffffffffffffffffffffffffffffffffffffffff16815260200190815260200160002060003373ffffffffffffffffffffffffffffffffffffffff1673ffffffffffffffffffffffffffffffffffffffff168152602001908152602001600020819055506117f6868261355e565b600091505b83518263ffffffff161015611855576118488686868563ffffffff168151811061182157fe5b6020026020010151868663ffffffff168151811061183b57fe5b60200260200101516136ca565b81806001019250506117fb565b8473ffffffffffffffffffffffffffffffffffffffff168673ffffffffffffffffffffffffffffffffffffffff163373ffffffffffffffffffffffffffffffffffffffff167fd7d630f8e1116ad40a06dd9a7299871e9fd7cc0a2f65a808251c764eebdcd0a78787604051808060200180602001838103835285818151815260200191508051906020019060200280838360005b838110156119045780820151818401526020810190506118e9565b50505050905001838103825284818151815260200191508051906020019060200280838360005b8381101561194657808201518184015260208101905061192b565b5050505090500194505050505060405180910390a4505050505050565b600360009054906101000a900473ffffffffffffffffffffffffffffffffffffffff1673ffffffffffffffffffffffffffffffffffffffff163373ffffffffffffffffffffffffffffffffffffffff16146119bd57600080fd5b600660008273ffffffffffffffffffffffffffffffffffffffff1673ffffffffffffffffffffffffffffffffffffffff16815260200190815260200160002060006101000a81549060ff02191690558073ffffffffffffffffffffffffffffffffffffffff167fa5afe14290b6481c42b0941584b7c9093cc3d4cf9dc885904881f063e012e31360405160405180910390a250565b6000600154905090565b6000600360149054906101000a900460ff1615611a7857600080fd5b600073ffffffffffffffffffffffffffffffffffffffff168373ffffffffffffffffffffffffffffffffffffffff161415611ab257600080fd5b611abb84613070565b50611ac583613070565b50600260008573ffffffffffffffffffffffffffffffffffffffff1673ffffffffffffffffffffffffffffffffffffffff16815260200190815260200160002060003373ffffffffffffffffffffffffffffffffffffffff1673ffffffffffffffffffffffffffffffffffffffff16815260200190815260200160002054821115611b4f57600080fd5b611bde82600260008773ffffffffffffffffffffffffffffffffffffffff1673ffffffffffffffffffffffffffffffffffffffff16815260200190815260200160002060003373ffffffffffffffffffffffffffffffffffffffff1673ffffffffffffffffffffffffffffffffffffffff1681526020019081526020016000205461354790919063ffffffff16565b600260008673ffffffffffffffffffffffffffffffffffffffff1673ffffffffffffffffffffffffffffffffffffffff16815260200190815260200160002060003373ffffffffffffffffffffffffffffffffffffffff1673ffffffffffffffffffffffffffffffffffffffff16815260200190815260200160002081905550611c68848361355e565b611c73848484613d58565b600190509392505050565b6000611c8982613f33565b6000808473ffffffffffffffffffffffffffffffffffffffff1673ffffffffffffffffffffffffffffffffffffffff16815260200190815260200160002054019050919050565b60066020528060005260406000206000915054906101000a900460ff1681565b601260ff16600a0a633b9aca000281565b601281565b600360009054906101000a900473ffffffffffffffffffffffffffffffffffffffff1673ffffffffffffffffffffffffffffffffffffffff163373ffffffffffffffffffffffffffffffffffffffff1614611d6057600080fd5b600360149054906101000a900460ff16611d7957600080fd5b6000600360146101000a81548160ff0219169083151502179055507f7805862f689e2f13df9f062ff482ad3ad112aca9e0847911ed832e158c525b3360405160405180910390a1565b600360149054906101000a900460ff1615611ddc57600080fd5b60008251118015611dee575080518251145b611df757600080fd5b611e0083613070565b5060008090506000809050600091505b82518263ffffffff161015611e5a57611e4b838363ffffffff1681518110611e3457fe5b60200260200101518261352d90919063ffffffff16565b90508180600101925050611e10565b6000808673ffffffffffffffffffffffffffffffffffffffff1673ffffffffffffffffffffffffffffffffffffffff16815260200190815260200160002054811115611ea557600080fd5b600260008673ffffffffffffffffffffffffffffffffffffffff1673ffffffffffffffffffffffffffffffffffffffff16815260200190815260200160002060003373ffffffffffffffffffffffffffffffffffffffff1673ffffffffffffffffffffffffffffffffffffffff16815260200190815260200160002054811115611f2e57600080fd5b611fbd81600260008873ffffffffffffffffffffffffffffffffffffffff1673ffffffffffffffffffffffffffffffffffffffff16815260200190815260200160002060003373ffffffffffffffffffffffffffffffffffffffff1673ffffffffffffffffffffffffffffffffffffffff1681526020019081526020016000205461354790919063ffffffff16565b600260008773ffffffffffffffffffffffffffffffffffffffff1673ffffffffffffffffffffffffffffffffffffffff16815260200190815260200160002060003373ffffffffffffffffffffffffffffffffffffffff1673ffffffffffffffffffffffffffffffffffffffff16815260200190815260200160002081905550612047858261355e565b600091505b83518263ffffffff16101561211b57600073ffffffffffffffffffffffffffffffffffffffff16848363ffffffff168151811061208557fe5b602002602001015173ffffffffffffffffffffffffffffffffffffffff1614156120ae57600080fd5b6120d0848363ffffffff16815181106120c357fe5b6020026020010151613070565b5061210e85858463ffffffff16815181106120e757fe5b6020026020010151858563ffffffff168151811061210157fe5b6020026020010151613d58565b818060010192505061204c565b5050505050565b600061212d82613f33565b600760008473ffffffffffffffffffffffffffffffffffffffff1673ffffffffffffffffffffffffffffffffffffffff16815260200190815260200160002060000154039050919050565b600360149054906101000a900460ff1681565b60076020528060005260406000206000915090508060000154908060020154908060030154905083565b6000600360149054906101000a900460ff16156121d157600080fd5b6121db8383614181565b905092915050565b6000600760008373ffffffffffffffffffffffffffffffffffffffff1673ffffffffffffffffffffffffffffffffffffffff168152602001908152602001600020600001546000808473ffffffffffffffffffffffffffffffffffffffff1673ffffffffffffffffffffffffffffffffffffffff16815260200190815260200160002054019050919050565b600360009054906101000a900473ffffffffffffffffffffffffffffffffffffffff1673ffffffffffffffffffffffffffffffffffffffff163373ffffffffffffffffffffffffffffffffffffffff16146122c957600080fd5b600360009054906101000a900473ffffffffffffffffffffffffffffffffffffffff1673ffffffffffffffffffffffffffffffffffffffff167ff8df31144d9c2f0f6b59d69b8b98abd5459d07f2742c4df920b25aae33c6482060405160405180910390a26000600360006101000a81548173ffffffffffffffffffffffffffffffffffffffff021916908373ffffffffffffffffffffffffffffffffffffffff160217905550565b600360009054906101000a900473ffffffffffffffffffffffffffffffffffffffff1673ffffffffffffffffffffffffffffffffffffffff163373ffffffffffffffffffffffffffffffffffffffff16146123cc57600080fd5b600360149054906101000a900460ff16156123e657600080fd5b6001600360146101000a81548160ff0219169083151502179055507f6985a02210a168e66602d3235cb6db0e70f92b3ba4d376a33c0f3d9434bff62560405160405180910390a1565b600360149054906101000a900460ff161561244957600080fd5b6000825111801561245b575080518251145b61246457600080fd5b61246d33613070565b5060008090506000809050600091505b82518263ffffffff1610156124c7576124b8838363ffffffff16815181106124a157fe5b60200260200101518261352d90919063ffffffff16565b9050818060010192505061247d565b6000803373ffffffffffffffffffffffffffffffffffffffff1673ffffffffffffffffffffffffffffffffffffffff1681526020019081526020016000205481111561251257600080fd5b61251c338261355e565b600091505b83518263ffffffff1610156125f057600073ffffffffffffffffffffffffffffffffffffffff16848363ffffffff168151811061255a57fe5b602002602001015173ffffffffffffffffffffffffffffffffffffffff16141561258357600080fd5b6125a5848363ffffffff168151811061259857fe5b6020026020010151613070565b506125e333858463ffffffff16815181106125bc57fe5b6020026020010151858563ffffffff16815181106125d657fe5b6020026020010151613d58565b8180600101925050612521565b50505050565b600360009054906101000a900473ffffffffffffffffffffffffffffffffffffffff1681565b600360149054906101000a900460ff161561263657600080fd5b60008251118015612648575080518251145b61265157600080fd5b600073ffffffffffffffffffffffffffffffffffffffff168373ffffffffffffffffffffffffffffffffffffffff16141561268b57600080fd5b61269433613070565b5061269e83613070565b5060008090506000809050600091505b83518263ffffffff1610156126f8576126e9848363ffffffff16815181106126d257fe5b60200260200101518261352d90919063ffffffff16565b905081806001019250506126ae565b6000803373ffffffffffffffffffffffffffffffffffffffff1673ffffffffffffffffffffffffffffffffffffffff1681526020019081526020016000205481111561274357600080fd5b61274d338261355e565b600091505b83518263ffffffff1610156127ac5761279f3386868563ffffffff168151811061277857fe5b6020026020010151868663ffffffff168151811061279257fe5b60200260200101516136ca565b8180600101925050612752565b8473ffffffffffffffffffffffffffffffffffffffff163373ffffffffffffffffffffffffffffffffffffffff167fac28db1fddd8287fcb23de0acaedca2873fdec9b7bca405eeae4e84f59c64b408686604051808060200180602001838103835285818151815260200191508051906020019060200280838360005b83811015612844578082015181840152602081019050612829565b50505050905001838103825284818151815260200191508051906020019060200280838360005b8381101561288657808201518184015260208101905061286b565b5050505090500194505050505060405180910390a35050505050565b6040518060400160405280600381526020017f595754000000000000000000000000000000000000000000000000000000000081525081565b33600660008273ffffffffffffffffffffffffffffffffffffffff1673ffffffffffffffffffffffffffffffffffffffff16815260200190815260200160002060009054906101000a900460ff1661293257600080fd5b6001600460008473ffffffffffffffffffffffffffffffffffffffff1673ffffffffffffffffffffffffffffffffffffffff16815260200190815260200160002060006101000a81548160ff0219169083151502179055508173ffffffffffffffffffffffffffffffffffffffff163373ffffffffffffffffffffffffffffffffffffffff167f4ba0c3e63f49ee88105a16ca1ec7a6877e71ea95b2415fa154c1198fbe4242ae60405160405180910390a35050565b6000600360149054906101000a900460ff1615612a0457600080fd5b600073ffffffffffffffffffffffffffffffffffffffff168373ffffffffffffffffffffffffffffffffffffffff161415612a3e57600080fd5b612a4733613070565b50612a5183613070565b50612a5c338361355e565b612a67338484613d58565b6001905092915050565b60046020528060005260406000206000915054906101000a900460ff1681565b33600660008273ffffffffffffffffffffffffffffffffffffffff1673ffffffffffffffffffffffffffffffffffffffff16815260200190815260200160002060009054906101000a900460ff16612ae857600080fd5b600460008373ffffffffffffffffffffffffffffffffffffffff1673ffffffffffffffffffffffffffffffffffffffff16815260200190815260200160002060006101000a81549060ff02191690558173ffffffffffffffffffffffffffffffffffffffff163373ffffffffffffffffffffffffffffffffffffffff167f561e23c25d448e80aab05671d31763aa5ae0546dd6f50b5d752c46ed28252a7e60405160405180910390a35050565b600360009054906101000a900473ffffffffffffffffffffffffffffffffffffffff1673ffffffffffffffffffffffffffffffffffffffff163373ffffffffffffffffffffffffffffffffffffffff1614612bef57600080fd5b6001600660008373ffffffffffffffffffffffffffffffffffffffff1673ffffffffffffffffffffffffffffffffffffffff16815260200190815260200160002060006101000a81548160ff0219169083151502179055508073ffffffffffffffffffffffffffffffffffffffff167f6e5eedde7d0d690d55dea362660be04ef1eb36252e48817545afb1ae6b245a4060405160405180910390a250565b6000600360149054906101000a900460ff1615612ca957600080fd5b612cb38383614412565b905092915050565b6000600260008473ffffffffffffffffffffffffffffffffffffffff1673ffffffffffffffffffffffffffffffffffffffff16815260200190815260200160002060008373ffffffffffffffffffffffffffffffffffffffff1673ffffffffffffffffffffffffffffffffffffffff16815260200190815260200160002054905092915050565b60085481565b600080600760008573ffffffffffffffffffffffffffffffffffffffff1673ffffffffffffffffffffffffffffffffffffffff168152602001908152602001600020600101600084815260200190815260200160002060000154600760008673ffffffffffffffffffffffffffffffffffffffff1673ffffffffffffffffffffffffffffffffffffffff168152602001908152602001600020600101600085815260200190815260200160002060010154915091509250929050565b60056020528060005260406000206000915054906101000a900460ff1681565b600360009054906101000a900473ffffffffffffffffffffffffffffffffffffffff1673ffffffffffffffffffffffffffffffffffffffff163373ffffffffffffffffffffffffffffffffffffffff1614612e7e57600080fd5b600073ffffffffffffffffffffffffffffffffffffffff168173ffffffffffffffffffffffffffffffffffffffff161415612eb857600080fd5b8073ffffffffffffffffffffffffffffffffffffffff16600360009054906101000a900473ffffffffffffffffffffffffffffffffffffffff1673ffffffffffffffffffffffffffffffffffffffff167f8be0079c531659141344cd1fd0a4f28419497f9722a3daafe3b4186f6b6457e060405160405180910390a380600360006101000a81548173ffffffffffffffffffffffffffffffffffffffff021916908373ffffffffffffffffffffffffffffffffffffffff16021790555050565b60095481565b600081600260003373ffffffffffffffffffffffffffffffffffffffff1673ffffffffffffffffffffffffffffffffffffffff16815260200190815260200160002060008573ffffffffffffffffffffffffffffffffffffffff1673ffffffffffffffffffffffffffffffffffffffff168152602001908152602001600020819055508273ffffffffffffffffffffffffffffffffffffffff163373ffffffffffffffffffffffffffffffffffffffff167f8c5be1e5ebec7d5bd14f71427d1e84f3dd0314c0f7b2291e5b200ac8c7c3b925846040518082815260200191505060405180910390a36001905092915050565b600080600760008473ffffffffffffffffffffffffffffffffffffffff1673ffffffffffffffffffffffffffffffffffffffff1681526020019081526020016000206002015490506000600760008573ffffffffffffffffffffffffffffffffffffffff1673ffffffffffffffffffffffffffffffffffffffff168152602001908152602001600020600101600083815260200190815260200160002060000154905060008090506000600560008773ffffffffffffffffffffffffffffffffffffffff1673ffffffffffffffffffffffffffffffffffffffff16815260200190815260200160002060009054906101000a900460ff166131cb57600460008773ffffffffffffffffffffffffffffffffffffffff1673ffffffffffffffffffffffffffffffffffffffff16815260200190815260200160002060009054906101000a900460ff16156131ca576000945050505050613528565b5b5b600084141580156131dd5750428411155b15613317576131f5838361352d90919063ffffffff16565b9150839050600760008773ffffffffffffffffffffffffffffffffffffffff1673ffffffffffffffffffffffffffffffffffffffff1681526020019081526020016000206001016000858152602001908152602001600020600101549350600760008773ffffffffffffffffffffffffffffffffffffffff1673ffffffffffffffffffffffffffffffffffffffff1681526020019081526020016000206001016000858152602001908152602001600020600001549250600760008773ffffffffffffffffffffffffffffffffffffffff1673ffffffffffffffffffffffffffffffffffffffff1681526020019081526020016000206001016000828152602001908152602001600020600080820160009055600182016000905550506131cc565b83600760008873ffffffffffffffffffffffffffffffffffffffff1673ffffffffffffffffffffffffffffffffffffffff168152602001908152602001600020600201819055506133b382600760008973ffffffffffffffffffffffffffffffffffffffff1673ffffffffffffffffffffffffffffffffffffffff1681526020019081526020016000206000015461354790919063ffffffff16565b600760008873ffffffffffffffffffffffffffffffffffffffff1673ffffffffffffffffffffffffffffffffffffffff1681526020019081526020016000206000018190555061344a826000808973ffffffffffffffffffffffffffffffffffffffff1673ffffffffffffffffffffffffffffffffffffffff1681526020019081526020016000205461352d90919063ffffffff16565b6000808873ffffffffffffffffffffffffffffffffffffffff1673ffffffffffffffffffffffffffffffffffffffff168152602001908152602001600020819055506000600760008873ffffffffffffffffffffffffffffffffffffffff1673ffffffffffffffffffffffffffffffffffffffff168152602001908152602001600020600201541415613520576000600760008873ffffffffffffffffffffffffffffffffffffffff1673ffffffffffffffffffffffffffffffffffffffff168152602001908152602001600020600301819055505b819450505050505b919050565b600081830190508281101561353e57fe5b80905092915050565b60008282111561355357fe5b818303905092915050565b6000600360009054906101000a900473ffffffffffffffffffffffffffffffffffffffff1673ffffffffffffffffffffffffffffffffffffffff168373ffffffffffffffffffffffffffffffffffffffff16146135bb57506136c6565b600080600360009054906101000a900473ffffffffffffffffffffffffffffffffffffffff1673ffffffffffffffffffffffffffffffffffffffff1673ffffffffffffffffffffffffffffffffffffffff1681526020019081526020016000205490506301e1338060085401421061369a57601260ff16600a0a6298968002811161364c578060098190555061367a565b6136736064613665600a8461460e90919063ffffffff16565b61464290919063ffffffff16565b6009819055505b6136936301e1338060085461352d90919063ffffffff16565b6008819055505b8160095410156136a957600080fd5b6136be8260095461354790919063ffffffff16565b600981905550505b5050565b6000600760008573ffffffffffffffffffffffffffffffffffffffff1673ffffffffffffffffffffffffffffffffffffffff1681526020019081526020016000206002015490506000600760008673ffffffffffffffffffffffffffffffffffffffff1673ffffffffffffffffffffffffffffffffffffffff1681526020019081526020016000206003015490506000600760008773ffffffffffffffffffffffffffffffffffffffff1673ffffffffffffffffffffffffffffffffffffffff16815260200190815260200160002060010160008581526020019081526020016000206000015490506000808614156137c65750505050613d52565b4285116137e1576137d8888888613d58565b50505050613d52565b60008414156138d85784600760008973ffffffffffffffffffffffffffffffffffffffff1673ffffffffffffffffffffffffffffffffffffffff1681526020019081526020016000206002018190555084600760008973ffffffffffffffffffffffffffffffffffffffff1673ffffffffffffffffffffffffffffffffffffffff1681526020019081526020016000206003018190555085600760008973ffffffffffffffffffffffffffffffffffffffff1673ffffffffffffffffffffffffffffffffffffffff168152602001908152602001600020600101600087815260200190815260200160002060000181905550613d42565b6000821115613953576138f4868361352d90919063ffffffff16565b600760008973ffffffffffffffffffffffffffffffffffffffff1673ffffffffffffffffffffffffffffffffffffffff168152602001908152602001600020600101600087815260200190815260200160002060000181905550613d41565b83851015613a5d5785600760008973ffffffffffffffffffffffffffffffffffffffff1673ffffffffffffffffffffffffffffffffffffffff16815260200190815260200160002060010160008781526020019081526020016000206000018190555083600760008973ffffffffffffffffffffffffffffffffffffffff1673ffffffffffffffffffffffffffffffffffffffff16815260200190815260200160002060010160008781526020019081526020016000206001018190555084600760008973ffffffffffffffffffffffffffffffffffffffff1673ffffffffffffffffffffffffffffffffffffffff16815260200190815260200160002060020181905550613d40565b82851115613b675785600760008973ffffffffffffffffffffffffffffffffffffffff1673ffffffffffffffffffffffffffffffffffffffff16815260200190815260200160002060010160008781526020019081526020016000206000018190555084600760008973ffffffffffffffffffffffffffffffffffffffff1673ffffffffffffffffffffffffffffffffffffffff16815260200190815260200160002060010160008581526020019081526020016000206001018190555084600760008973ffffffffffffffffffffffffffffffffffffffff1673ffffffffffffffffffffffffffffffffffffffff16815260200190815260200160002060030181905550613d3f565b839050600760008873ffffffffffffffffffffffffffffffffffffffff1673ffffffffffffffffffffffffffffffffffffffff16815260200190815260200160002060010160008281526020019081526020016000206001015491505b84821015613c2d57819050600760008873ffffffffffffffffffffffffffffffffffffffff1673ffffffffffffffffffffffffffffffffffffffff1681526020019081526020016000206001016000828152602001908152602001600020600101549150613bc4565b85600760008973ffffffffffffffffffffffffffffffffffffffff1673ffffffffffffffffffffffffffffffffffffffff16815260200190815260200160002060010160008781526020019081526020016000206000018190555081600760008973ffffffffffffffffffffffffffffffffffffffff1673ffffffffffffffffffffffffffffffffffffffff16815260200190815260200160002060010160008781526020019081526020016000206001018190555084600760008973ffffffffffffffffffffffffffffffffffffffff1673ffffffffffffffffffffffffffffffffffffffff1681526020019081526020016000206001016000838152602001908152602001600020600101819055505b5b5b5b613d4d888888614656565b505050505b50505050565b6000808473ffffffffffffffffffffffffffffffffffffffff1673ffffffffffffffffffffffffffffffffffffffff16815260200190815260200160002054811115613da357600080fd5b613df4816000808673ffffffffffffffffffffffffffffffffffffffff1673ffffffffffffffffffffffffffffffffffffffff1681526020019081526020016000205461354790919063ffffffff16565b6000808573ffffffffffffffffffffffffffffffffffffffff1673ffffffffffffffffffffffffffffffffffffffff16815260200190815260200160002081905550613e87816000808573ffffffffffffffffffffffffffffffffffffffff1673ffffffffffffffffffffffffffffffffffffffff1681526020019081526020016000205461352d90919063ffffffff16565b6000808473ffffffffffffffffffffffffffffffffffffffff1673ffffffffffffffffffffffffffffffffffffffff168152602001908152602001600020819055508173ffffffffffffffffffffffffffffffffffffffff168373ffffffffffffffffffffffffffffffffffffffff167fddf252ad1be2c89b69c2b068fc378daa952ba7f163c4a11628f55a4df523b3ef836040518082815260200191505060405180910390a3505050565b600080600760008473ffffffffffffffffffffffffffffffffffffffff1673ffffffffffffffffffffffffffffffffffffffff1681526020019081526020016000206002015490506000600760008573ffffffffffffffffffffffffffffffffffffffff1673ffffffffffffffffffffffffffffffffffffffff168152602001908152602001600020600101600083815260200190815260200160002060000154905060008090506000600560008773ffffffffffffffffffffffffffffffffffffffff1673ffffffffffffffffffffffffffffffffffffffff16815260200190815260200160002060009054906101000a900460ff1661408e57600460008773ffffffffffffffffffffffffffffffffffffffff1673ffffffffffffffffffffffffffffffffffffffff16815260200190815260200160002060009054906101000a900460ff161561408d57600094505050505061417c565b5b5b600084141580156140a05750428411155b15614174576140b8838361352d90919063ffffffff16565b9150839050600760008773ffffffffffffffffffffffffffffffffffffffff1673ffffffffffffffffffffffffffffffffffffffff1681526020019081526020016000206001016000858152602001908152602001600020600101549350600760008773ffffffffffffffffffffffffffffffffffffffff1673ffffffffffffffffffffffffffffffffffffffff168152602001908152602001600020600101600085815260200190815260200160002060000154925061408f565b819450505050505b919050565b600080600260003373ffffffffffffffffffffffffffffffffffffffff1673ffffffffffffffffffffffffffffffffffffffff16815260200190815260200160002060008573ffffffffffffffffffffffffffffffffffffffff1673ffffffffffffffffffffffffffffffffffffffff16815260200190815260200160002054905080831115614292576000600260003373ffffffffffffffffffffffffffffffffffffffff1673ffffffffffffffffffffffffffffffffffffffff16815260200190815260200160002060008673ffffffffffffffffffffffffffffffffffffffff1673ffffffffffffffffffffffffffffffffffffffff16815260200190815260200160002081905550614326565b6142a5838261354790919063ffffffff16565b600260003373ffffffffffffffffffffffffffffffffffffffff1673ffffffffffffffffffffffffffffffffffffffff16815260200190815260200160002060008673ffffffffffffffffffffffffffffffffffffffff1673ffffffffffffffffffffffffffffffffffffffff168152602001908152602001600020819055505b8373ffffffffffffffffffffffffffffffffffffffff163373ffffffffffffffffffffffffffffffffffffffff167f8c5be1e5ebec7d5bd14f71427d1e84f3dd0314c0f7b2291e5b200ac8c7c3b925600260003373ffffffffffffffffffffffffffffffffffffffff1673ffffffffffffffffffffffffffffffffffffffff16815260200190815260200160002060008873ffffffffffffffffffffffffffffffffffffffff1673ffffffffffffffffffffffffffffffffffffffff168152602001908152602001600020546040518082815260200191505060405180910390a3600191505092915050565b60006144a382600260003373ffffffffffffffffffffffffffffffffffffffff1673ffffffffffffffffffffffffffffffffffffffff16815260200190815260200160002060008673ffffffffffffffffffffffffffffffffffffffff1673ffffffffffffffffffffffffffffffffffffffff1681526020019081526020016000205461352d90919063ffffffff16565b600260003373ffffffffffffffffffffffffffffffffffffffff1673ffffffffffffffffffffffffffffffffffffffff16815260200190815260200160002060008573ffffffffffffffffffffffffffffffffffffffff1673ffffffffffffffffffffffffffffffffffffffff168152602001908152602001600020819055508273ffffffffffffffffffffffffffffffffffffffff163373ffffffffffffffffffffffffffffffffffffffff167f8c5be1e5ebec7d5bd14f71427d1e84f3dd0314c0f7b2291e5b200ac8c7c3b925600260003373ffffffffffffffffffffffffffffffffffffffff1673ffffffffffffffffffffffffffffffffffffffff16815260200190815260200160002060008773ffffffffffffffffffffffffffffffffffffffff1673ffffffffffffffffffffffffffffffffffffffff168152602001908152602001600020546040518082815260200191505060405180910390a36001905092915050565b600080831415614621576000905061463c565b81830290508183828161463057fe5b041461463857fe5b8090505b92915050565b600081838161464d57fe5b04905092915050565b6000808473ffffffffffffffffffffffffffffffffffffffff1673ffffffffffffffffffffffffffffffffffffffff168152602001908152602001600020548111156146a157600080fd5b6146f2816000808673ffffffffffffffffffffffffffffffffffffffff1673ffffffffffffffffffffffffffffffffffffffff1681526020019081526020016000205461354790919063ffffffff16565b6000808573ffffffffffffffffffffffffffffffffffffffff1673ffffffffffffffffffffffffffffffffffffffff1681526020019081526020016000208190555061478981600760008573ffffffffffffffffffffffffffffffffffffffff1673ffffffffffffffffffffffffffffffffffffffff1681526020019081526020016000206000015461352d90919063ffffffff16565b600760008473ffffffffffffffffffffffffffffffffffffffff1673ffffffffffffffffffffffffffffffffffffffff1681526020019081526020016000206000018190555050505056fea165627a7a723058201a4f9cd3f0c491d61a91f40bb91ce6cdcc417dbecfab1b5b812ac18f69beb34c0029",
  "source": "pragma solidity >=0.4.21 <0.6.0;\n\n\nimport \"./StandardToken.sol\";\nimport \"./Management.sol\";\n\n\n/**\n * @title YouWalletToken\n */\ncontract YouWalletToken is StandardToken, Management {\n\n  string public constant name = \"You Wallet\"; // solium-disable-line uppercase\n  string public constant symbol = \"YWT\"; // solium-disable-line uppercase\n  uint8 public constant decimals = 18; // solium-disable-line uppercase\n\n  /**\n   * \n   * , 1tokenwei(tokenwei)\n   * */\n  uint256 constant internal MAGNITUDE = 10 ** uint256(decimals);\n\n  uint256 public constant INITIAL_SUPPLY = 1000000000 * MAGNITUDE;\n\n  // \n  event TransferByDate(address indexed from, address indexed to, uint256[] values, uint256[] dates);\n  event TransferFromByDate(address indexed spender, address indexed from, address indexed to, uint256[] values, uint256[] dates);\n  // refresh \n  event Refresh(address indexed from, address indexed who);\n\n  /**\n   * maplist\n   * value \n   * _next \n   * */\n  struct Element {\n    uint256 value;\n    uint256 next;\n  }\n\n  /**\n   * \n   * lockedBalances \n   * lockedElement \n   * start_date \n   * end_date \n   * */\n  struct Account {\n    uint256 lockedBalances;\n    mapping(uint256 => Element) lockedElement;\n    uint256 start_date;\n    uint256 end_date;\n  }\n\n  /**\n   * \n   * */\n  mapping(address => Account) public accounts;\n\n  /**\n   * owner 10%\n   * curYear:  \n   * YEAR:  365\n   * vault: owner\n   * VAULT_FLOOR_VALUE: vault \n   * */\n  uint256 public curYear;\n  uint256 constant internal YEAR = 365 * 24 * 3600;\n  uint256 public vault;\n  uint256 constant internal VAULT_FLOOR_VALUE = 10000000 * MAGNITUDE;\n\n  /**\n   * \n   * \n   */\n  constructor(address _owner) public {\n    // _owner\n    require(_owner != address(0));\n\n    // owner\n    owner = _owner;\n\n    // owner\n    adminList[owner] = true;\n\n    // \n    totalSupply_ = INITIAL_SUPPLY;\n    balances[owner] = INITIAL_SUPPLY;\n    emit Transfer(address(0), owner, INITIAL_SUPPLY);\n\n    /**\n     * owner\n     * 2018/01/01 00:00:00\n     * */\n    vault = totalSupply_.mul(10).div(100);\n    curYear = 1514736000;\n  }\n\n  /**\n   * fallback\n   * */\n  function () external payable {\n  }\n\n  /**\n   * ownervault\n   * */\n  function refreshVault(address _who, uint256 _value) internal\n  {\n    uint256 balance;\n\n    // owner\n    if (_who != owner)\n      return ;\n    // balance of owner\n    balance = balances[owner];\n    // , vault10%\n    if (now >= (curYear + YEAR))\n    {\n      if (balance <= VAULT_FLOOR_VALUE)\n        vault = balance;\n      else\n        vault = balance.mul(10).div(100);\n      curYear = curYear.add(YEAR);\n    }\n\n    // vault  _value\n    require(vault >= _value);\n    vault = vault.sub(_value);\n    return ;\n  }\n\n  /**\n   * \n   * _who: \n   * */\n  function computeLockedBalances(address _who) internal view returns (uint256)\n  {\n    uint256 tmp_date = accounts[_who].start_date;\n    uint256 tmp_value = accounts[_who].lockedElement[tmp_date].value;\n    uint256 tmp_balances = 0;\n    uint256 tmp_var;\n\n    // \n    if (!forceAutoFreeLockBalance[_who])\n    {\n      // \n      if(autoFreeLockBalance[_who])\n      {\n        // (true), 0\n        return 0;\n      }\n    }\n\n    // \n    while(tmp_date != 0 &&\n          tmp_date <= now)\n    {\n      // \n      tmp_balances = tmp_balances.add(tmp_value);\n\n      //  tmp_date\n      tmp_var = tmp_date;\n\n      // \n      tmp_date = accounts[_who].lockedElement[tmp_date].next;\n      tmp_value = accounts[_who].lockedElement[tmp_date].value;\n    }\n\n    return tmp_balances;\n  }\n\n  /**\n   * , \n   * _who: \n   * */\n  function refreshlockedBalances(address _who) internal returns (uint256)\n  {\n    uint256 tmp_date = accounts[_who].start_date;\n    uint256 tmp_value = accounts[_who].lockedElement[tmp_date].value;\n    uint256 tmp_balances = 0;\n    uint256 tmp_var;\n\n    // \n    if (!forceAutoFreeLockBalance[_who])\n    {\n      // \n      if(autoFreeLockBalance[_who])\n      {\n        // (true), 0\n        return 0; \n      }\n    }\n\n    // \n    while(tmp_date != 0 &&\n          tmp_date <= now)\n    {\n      // \n      tmp_balances = tmp_balances.add(tmp_value);\n\n      //  tmp_date\n      tmp_var = tmp_date;\n\n      // \n      tmp_date = accounts[_who].lockedElement[tmp_date].next;\n      tmp_value = accounts[_who].lockedElement[tmp_date].value;\n\n      delete accounts[_who].lockedElement[tmp_var];\n    }\n\n    // \n    accounts[_who].start_date = tmp_date;\n    accounts[_who].lockedBalances = accounts[_who].lockedBalances.sub(tmp_balances);\n    balances[_who] = balances[_who].add(tmp_balances);\n\n    // 0\n    if (accounts[_who].start_date == 0)\n        accounts[_who].end_date = 0;\n\n    return tmp_balances;\n  }\n\n  /**\n   * \n   * _from token\n   * _to token\n   * _value token\n   * */\n  function transferAvailableBalances(\n    address _from,\n    address _to,\n    uint256 _value\n  )\n    internal\n  {\n    // \n    require(_value <= balances[_from]);\n\n    // \n    balances[_from] = balances[_from].sub(_value);\n    balances[_to] = balances[_to].add(_value);\n\n    emit Transfer(_from, _to, _value);\n  }\n\n  /**\n   * \n   * _from token\n   * _to token\n   * _value token\n   * */\n  function transferLockedBalances(\n    address _from,\n    address _to,\n    uint256 _value\n  )\n    internal\n  {\n    // \n    require(_value <= balances[_from]);\n\n    // \n    balances[_from] = balances[_from].sub(_value);\n    accounts[_to].lockedBalances = accounts[_to].lockedBalances.add(_value);\n  }\n\n  /**\n   * \n   * */\n  function transfer(\n    address _to,\n    uint256 _value\n  )\n    public\n    whenNotPaused\n    returns (bool)\n  {\n    // 0\n    require(_to != address(0));\n\n    /**\n     * \n     * */\n    refreshlockedBalances(msg.sender);\n    refreshlockedBalances(_to);\n\n    // vault\n    refreshVault(msg.sender, _value);\n\n    // \n    transferAvailableBalances(msg.sender, _to, _value);\n\n    return true;\n  }\n\n  /**\n   * \n   *  _from  _value  _to\n   * */\n  function transferFrom(\n    address _from,\n    address _to,\n    uint256 _value\n  )\n    public\n    whenNotPaused\n    returns (bool)\n  {\n    // 0\n    require(_to != address(0));\n\n    /**\n     * \n     * */\n    refreshlockedBalances(_from);\n    refreshlockedBalances(_to);\n\n    // \n    require(_value <= allowed[_from][msg.sender]);\n\n    // \n    allowed[_from][msg.sender] = allowed[_from][msg.sender].sub(_value);\n\n    // vault\n    refreshVault(_from, _value);\n\n    // \n    transferAvailableBalances(_from, _to, _value);\n\n    return true;\n  }\n\n  /**\n   * \n   *  _spender  _value\n   * */\n  function approve(\n    address _spender,\n    uint256 _value\n  )\n    public\n    whenNotPaused\n    returns (bool)\n  {\n    return super.approve(_spender, _value);\n  }\n\n  /**\n   * \n   *  _spender  _addedValue\n   * */\n  function increaseApproval(\n    address _spender,\n    uint _addedValue\n  )\n    public\n    whenNotPaused\n    returns (bool success)\n  {\n    return super.increaseApproval(_spender, _addedValue);\n  }\n\n  /**\n   * \n   *  _spender  _subtractedValue\n   * */\n  function decreaseApproval(\n    address _spender,\n    uint _subtractedValue\n  )\n    public\n    whenNotPaused\n    returns (bool success)\n  {\n    return super.decreaseApproval(_spender, _subtractedValue);\n  }\n\n  /**\n   *  token\n   *  _receivers\n   *  _values\n   * */\n  function batchTransfer(\n    address[] memory _receivers,\n    uint256[] memory _values\n  )\n    public\n    whenNotPaused\n  {\n    // token\n    require(_receivers.length > 0 && _receivers.length == _values.length);\n\n    /**\n     * \n     * */\n    refreshlockedBalances(msg.sender);\n\n    // \n    uint32 i = 0;\n    uint256 total = 0;\n    for (i = 0; i < _values.length; i ++)\n    {\n      total = total.add(_values[i]);\n    }\n    require(total <= balances[msg.sender]);\n\n    // vault\n    refreshVault(msg.sender, total);\n\n    //  \n    for (i = 0; i < _receivers.length; i ++)\n    {\n      // 0\n      require(_receivers[i] != address(0));\n\n      refreshlockedBalances(_receivers[i]);\n      // \n      transferAvailableBalances(msg.sender, _receivers[i], _values[i]);\n    }\n  }\n\n  /**\n   *  token\n   *  _from\n   *  _receivers\n   *  _values\n   * */\n  function batchTransferFrom(\n    address _from,\n    address[] memory _receivers,\n    uint256[] memory _values\n  )\n    public\n    whenNotPaused\n  {\n    // token\n    require(_receivers.length > 0 && _receivers.length == _values.length);\n\n    /**\n     * \n     * */\n    refreshlockedBalances(_from);\n\n    // \n    uint32 i = 0;\n    uint256 total = 0;\n    for (i = 0; i < _values.length; i ++)\n    {\n      total = total.add(_values[i]);\n    }\n    require(total <= balances[_from]);\n\n    // \n    require(total <= allowed[_from][msg.sender]);\n\n    // \n    allowed[_from][msg.sender] = allowed[_from][msg.sender].sub(total);\n\n    // vault\n    refreshVault(_from, total);\n\n    //  \n    for (i = 0; i < _receivers.length; i ++)\n    {\n      // 0\n      require(_receivers[i] != address(0));\n\n      refreshlockedBalances(_receivers[i]);\n      // \n      transferAvailableBalances(_from, _receivers[i], _values[i]);\n    }\n  }\n\n  /**\n   * , token\n   * _receiver \n   * _values \n   * _dates \n   *        UTC197011\n   * */\n  function transferByDate(\n    address _receiver,\n    uint256[] memory _values,\n    uint256[] memory _dates\n  )\n    public\n    whenNotPaused\n  {\n    // token\n    require(_values.length > 0 &&\n        _values.length == _dates.length);\n\n    // 0\n    require(_receiver != address(0));\n\n    /**\n     * \n     * */\n    refreshlockedBalances(msg.sender);\n    refreshlockedBalances(_receiver);\n\n    // \n    uint32 i = 0;\n    uint256 total = 0;\n    for (i = 0; i < _values.length; i ++)\n    {\n      total = total.add(_values[i]);\n    }\n    require(total <= balances[msg.sender]);\n\n    // vault\n    refreshVault(msg.sender, total);\n\n    // \n    for(i = 0; i < _values.length; i ++)\n    {\n      transferByDateSingle(msg.sender, _receiver, _values[i], _dates[i]);\n    }\n\n    emit TransferByDate(msg.sender, _receiver, _values, _dates);\n  }\n\n  /**\n   * , token\n   * _from \n   * _receiver \n   * _values \n   * _dates \n   *        UTC197011\n   * */\n  function transferFromByDate(\n    address _from,\n    address _receiver,\n    uint256[] memory _values,\n    uint256[] memory _dates\n  )\n    public\n    whenNotPaused\n  {\n    // token\n    require(_values.length > 0 &&\n        _values.length == _dates.length);\n\n    // 0\n    require(_receiver != address(0));\n\n    /**\n     * \n     * */\n    refreshlockedBalances(_from);\n    refreshlockedBalances(_receiver);\n\n    // \n    uint32 i = 0;\n    uint256 total = 0;\n    for (i = 0; i < _values.length; i ++)\n    {\n      total = total.add(_values[i]);\n    }\n    require(total <= balances[_from]);\n\n    // \n    require(total <= allowed[_from][msg.sender]);\n\n    // \n    allowed[_from][msg.sender] = allowed[_from][msg.sender].sub(total);\n\n    // vault\n    refreshVault(_from, total);\n\n    // \n    for(i = 0; i < _values.length; i ++)\n    {\n      transferByDateSingle(_from, _receiver, _values[i], _dates[i]);\n    }\n\n    emit TransferFromByDate(msg.sender, _from, _receiver, _values, _dates);\n  }\n\n  /**\n   * _from token\n   * _to \n   * _value \n   * _date \n   *       UTC197011\n   * */\n  function transferByDateSingle(\n    address _from,\n    address _to,\n    uint256 _value,\n    uint256 _date\n  )\n    internal\n  {\n    uint256 start_date = accounts[_to].start_date;\n    uint256 end_date = accounts[_to].end_date;\n    uint256 tmp_var = accounts[_to].lockedElement[_date].value;\n    uint256 tmp_date;\n\n    if (_value == 0)\n    {\n        // \n        return ;\n    }\n\n    if (_date <= now)\n    {\n      // \n      // \n      transferAvailableBalances(_from, _to, _value);\n\n      return ;\n    }\n\n    if (start_date == 0)\n    {\n      // \n      // \n      accounts[_to].start_date = _date;\n      accounts[_to].end_date = _date;\n      accounts[_to].lockedElement[_date].value = _value;\n    }\n    else if (tmp_var > 0)\n    {\n      // \n      accounts[_to].lockedElement[_date].value = tmp_var.add(_value);\n    }\n    else if (_date < start_date)\n    {\n      // \n      // \n      accounts[_to].lockedElement[_date].value = _value;\n      accounts[_to].lockedElement[_date].next = start_date;\n      accounts[_to].start_date = _date;\n    }\n    else if (_date > end_date)\n    {\n      // \n      // \n      accounts[_to].lockedElement[_date].value = _value;\n      accounts[_to].lockedElement[end_date].next = _date;\n      accounts[_to].end_date = _date;\n    }\n    else\n    {\n      /**\n       *  \n       * \n       * \n       * tmp_var  tmp_next\n       * */\n      tmp_date = start_date;\n      tmp_var = accounts[_to].lockedElement[tmp_date].next;\n      while(tmp_var < _date)\n      {\n        tmp_date = tmp_var;\n        tmp_var = accounts[_to].lockedElement[tmp_date].next;\n      }\n\n      // \n      accounts[_to].lockedElement[_date].value = _value;\n      accounts[_to].lockedElement[_date].next = tmp_var;\n      accounts[_to].lockedElement[tmp_date].next = _date;\n    }\n\n    // \n    transferLockedBalances(_from, _to, _value);\n\n    return ;\n  }\n\n  /**\n   * lockbalance\n   * */\n  function refresh(address _who) public whenNotPaused {\n    refreshlockedBalances(_who);\n    emit Refresh(msg.sender, _who);\n  }\n\n  /**\n   * \n   * */\n  function availableBalanceOf(address _owner) public view returns (uint256) {\n    return (balances[_owner] + computeLockedBalances(_owner));\n  }\n\n  /**\n   * \n   * */\n  function balanceOf(address _owner) public view returns (uint256) {\n    return balances[_owner] + accounts[_owner].lockedBalances;\n  }\n\n  /**\n   * \n   * */\n  function lockedBalanceOf(address _who) public view returns (uint256) {\n    return (accounts[_who].lockedBalances - computeLockedBalances(_who));\n  }\n\n  /**\n   * \n   * \n   * */\n  function lockedBalanceOfByDate(address _who, uint256 date) public view returns (uint256, uint256) {\n    return (accounts[_who].lockedElement[date].value, accounts[_who].lockedElement[date].next);\n  }\n\n}\n",
  "sourcePath": "/home/henry/learning/git/yw/token/contracts/YouWalletToken.sol",
  "compiler": {
    "name": "solc",
    "version": "0.5.8+commit.23d335f2.Emscripten.clang"
  },
  "schemaVersion": "3.0.11",
  "updatedAt": "2019-06-17T02:19:49.900Z",
  "devdoc": {
    "methods": {
      "renounceOwnership()": {
        "details": "Allows the current owner to relinquish control of the contract."
      },
      "transferOwnership(address)": {
        "details": "Allows the current owner to transfer control of the contract to a newOwner.",
        "params": {
          "newOwner": "The address to transfer ownership to."
        }
      }
    },
    "title": "YouWalletToken"
  },
  "userdoc": {
    "methods": {
      "addAdministrator(address)": {
        "notice": ""
      },
      "allowance(address,address)": {
        "notice": " _owner token _spender "
      },
      "approve(address,uint256)": {
        "notice": "  _spender  _value"
      },
      "availableBalanceOf(address)": {
        "notice": ""
      },
      "balanceOf(address)": {
        "notice": ""
      },
      "batchTransfer(address[],uint256[])": {
        "notice": " token  _receivers  _values"
      },
      "batchTransferFrom(address,address[],uint256[])": {
        "notice": " token  _from  _receivers  _values"
      },
      "closeAutoFree(address)": {
        "notice": ""
      },
      "constructor": " ",
      "decreaseApproval(address,uint256)": {
        "notice": "  _spender  _subtractedValue"
      },
      "delAdministrator(address)": {
        "notice": ""
      },
      "increaseApproval(address,uint256)": {
        "notice": "  _spender  _addedValue"
      },
      "lockedBalanceOf(address)": {
        "notice": ""
      },
      "lockedBalanceOfByDate(address,uint256)": {
        "notice": " "
      },
      "openAutoFree(address)": {
        "notice": ""
      },
      "openForceAutoFree(address)": {
        "notice": " "
      },
      "pause()": {
        "notice": "* "
      },
      "refresh(address)": {
        "notice": "lockbalance"
      },
      "totalSupply()": {
        "notice": ""
      },
      "transfer(address,uint256)": {
        "notice": ""
      },
      "transferByDate(address,uint256[],uint256[])": {
        "notice": ", token _receiver  _values  _dates        UTC197011"
      },
      "transferFrom(address,address,uint256)": {
        "notice": "  _from  _value  _to"
      },
      "transferFromByDate(address,address,uint256[],uint256[])": {
        "notice": ", token _from  _receiver  _values  _dates        UTC197011"
      },
      "unpause()": {
        "notice": ""
      }
    }
  }
}